{
  "_format": "hh-sol-artifact-1",
  "contractName": "Vote",
  "sourceName": "contracts/Voting.sol",
  "abi": [
    {
      "inputs": [
        {
          "internalType": "string[]",
          "name": "candidateNames",
          "type": "string[]"
        }
      ],
      "stateMutability": "nonpayable",
      "type": "constructor"
    },
    {
      "inputs": [
        {
          "internalType": "uint256",
          "name": "",
          "type": "uint256"
        }
      ],
      "name": "_candidates",
      "outputs": [
        {
          "internalType": "string",
          "name": "name",
          "type": "string"
        },
        {
          "internalType": "uint256",
          "name": "voteCount",
          "type": "uint256"
        }
      ],
      "stateMutability": "view",
      "type": "function"
    },
    {
      "inputs": [
        {
          "internalType": "uint256",
          "name": "",
          "type": "uint256"
        }
      ],
      "name": "_voters",
      "outputs": [
        {
          "internalType": "string",
          "name": "vote",
          "type": "string"
        },
        {
          "internalType": "bool",
          "name": "voted",
          "type": "bool"
        },
        {
          "internalType": "uint256",
          "name": "weight",
          "type": "uint256"
        },
        {
          "internalType": "address",
          "name": "_voter",
          "type": "address"
        }
      ],
      "stateMutability": "view",
      "type": "function"
    },
    {
      "inputs": [
        {
          "internalType": "string",
          "name": "",
          "type": "string"
        }
      ],
      "name": "candidates",
      "outputs": [
        {
          "internalType": "string",
          "name": "name",
          "type": "string"
        },
        {
          "internalType": "uint256",
          "name": "voteCount",
          "type": "uint256"
        }
      ],
      "stateMutability": "view",
      "type": "function"
    },
    {
      "inputs": [
        {
          "internalType": "string",
          "name": "voter",
          "type": "string"
        }
      ],
      "name": "getRightToVote",
      "outputs": [],
      "stateMutability": "nonpayable",
      "type": "function"
    },
    {
      "inputs": [
        {
          "internalType": "string",
          "name": "candidate",
          "type": "string"
        },
        {
          "internalType": "string",
          "name": "voter",
          "type": "string"
        }
      ],
      "name": "vote",
      "outputs": [],
      "stateMutability": "nonpayable",
      "type": "function"
    },
    {
      "inputs": [
        {
          "internalType": "string",
          "name": "",
          "type": "string"
        }
      ],
      "name": "voters",
      "outputs": [
        {
          "internalType": "string",
          "name": "vote",
          "type": "string"
        },
        {
          "internalType": "bool",
          "name": "voted",
          "type": "bool"
        },
        {
          "internalType": "uint256",
          "name": "weight",
          "type": "uint256"
        },
        {
          "internalType": "address",
          "name": "_voter",
          "type": "address"
        }
      ],
      "stateMutability": "view",
      "type": "function"
    }
  ],
  "bytecode": "0x60806040523480156200001157600080fd5b5060405162000e8f38038062000e8f833981016040819052620000349162000250565b60005b8151811015620001a25760405180604001604052808383815181106200006d57634e487b7160e01b600052603260045260246000fd5b6020026020010151815260200160008152506003838381518110620000a257634e487b7160e01b600052603260045260246000fd5b6020026020010151604051620000b9919062000352565b90815260200160405180910390206000820151816000019080519060200190620000e5929190620001aa565b506020820151816001015590505060405180604001604052808383815181106200011f57634e487b7160e01b600052603260045260246000fd5b602002602001015181526020016000815250600082815481106200015357634e487b7160e01b600052603260045260246000fd5b906000526020600020906002020160008201518160000190805190602001906200017f929190620001aa565b506020919091015160019091015580620001998162000413565b91505062000037565b505062000451565b828054620001b890620003d6565b90600052602060002090601f016020900481019282620001dc576000855562000227565b82601f10620001f757805160ff191683800117855562000227565b8280016001018555821562000227579182015b82811115620002275782518255916020019190600101906200020a565b506200023592915062000239565b5090565b5b808211156200023557600081556001016200023a565b6000602080838503121562000263578182fd5b82516001600160401b03808211156200027a578384fd5b8185019150601f86818401126200028f578485fd5b825182811115620002a457620002a46200043b565b620002b3858683020162000370565b81815285810190858701885b848110156200034257815188018c603f820112620002db578a8bfd5b89810151604089821115620002f457620002f46200043b565b62000307828a01601f19168d0162000370565b8281528f828486010111156200031b578d8efd5b6200032c838e8301848701620003a3565b87525050509288019290880190600101620002bf565b50909a9950505050505050505050565b6000825162000366818460208701620003a3565b9190910192915050565b604051601f8201601f191681016001600160401b03811182821017156200039b576200039b6200043b565b604052919050565b60005b83811015620003c0578181015183820152602001620003a6565b83811115620003d0576000848401525b50505050565b600281046001821680620003eb57607f821691505b602082108114156200040d57634e487b7160e01b600052602260045260246000fd5b50919050565b60006000198214156200043457634e487b7160e01b81526011600452602481fd5b5060010190565b634e487b7160e01b600052604160045260246000fd5b610a2e80620004616000396000f3fe608060405234801561001057600080fd5b50600436106100625760003560e01c806353fa2e6414610067578063648a305a14610093578063a6e3ef3b146100b4578063c5539cc2146100c7578063d10ca81e146100da578063e8d5940d146100ef575b600080fd5b61007a6100753660046107fd565b610102565b60405161008a94939291906108f9565b60405180910390f35b6100a66100a1366004610899565b6101cc565b60405161008a929190610931565b61007a6100c2366004610899565b610288565b6100a66100d53660046107fd565b6102bb565b6100ed6100e83660046107fd565b6102e1565b005b6100ed6100fd366004610838565b6104ad565b8051602081830181018051600282529282019190930120915280548190610128906109a7565b80601f0160208091040260200160405190810160405280929190818152602001828054610154906109a7565b80156101a15780601f10610176576101008083540402835291602001916101a1565b820191906000526020600020905b81548152906001019060200180831161018457829003601f168201915b5050505060018301546002840154600390940154929360ff909116929091506001600160a01b031684565b600081815481106101dc57600080fd5b90600052602060002090600202016000915090508060000180546101ff906109a7565b80601f016020809104026020016040519081016040528092919081815260200182805461022b906109a7565b80156102785780601f1061024d57610100808354040283529160200191610278565b820191906000526020600020905b81548152906001019060200180831161025b57829003601f168201915b5050505050908060010154905082565b6001818154811061029857600080fd5b9060005260206000209060040201600091509050806000018054610128906109a7565b80516020818301810180516003825292820191909301209152805481906101ff906109a7565b6002816040516102f191906108dd565b9081526040519081900360200190206001015460ff16156103595760405162461bcd60e51b815260206004820152601c60248201527f54686520566f7465722068617320616c726561647920766f7465642e0000000060448201526064015b60405180910390fd5b60028160405161036991906108dd565b90815260200160405180910390206002015460001461038757600080fd5b600160028260405161039991906108dd565b908152602001604051809103902060020181905550336002826040516103bf91906108dd565b90815260408051918290036020908101832060030180546001600160a01b03959095166001600160a01b03199095169490941790935560a082018152600060808301818152835282840181905260019183018290523360608401528154808301835591905281518051929360049092027fb10e2d527612073b26eecdfd717e6a320cf44b4afac2b0732d9fcbe2b7fa0cf6019261045f9284920190610662565b50602082015160018201805460ff191691151591909117905560408201516002820155606090910151600390910180546001600160a01b0319166001600160a01b0390921691909117905550565b60006002826040516104bf91906108dd565b90815260405190819003602001902060038101549091506001600160a01b0316331461053e5760405162461bcd60e51b815260206004820152602860248201527f596f7520617265206e6f742074686520766f746572207769746820746869732060448201526730b1b1b7bab73a1760c11b6064820152608401610350565b600281015461058f5760405162461bcd60e51b815260206004820152601a60248201527f596f752068617665206e6f20726967687420746f20766f74652e0000000000006044820152606401610350565b600181015460ff16156105d95760405162461bcd60e51b81526020600482015260126024820152712cb7ba9030b63932b0b23c903b37ba32b21760711b6044820152606401610350565b6001818101805460ff191690911790556040516003906105fa9085906108dd565b9081526040519081900360200190208054829190610617906109a7565b6106229291906106e6565b50806002015460038460405161063891906108dd565b908152602001604051809103902060010160008282546106589190610953565b9091555050505050565b82805461066e906109a7565b90600052602060002090601f01602090048101928261069057600085556106d6565b82601f106106a957805160ff19168380011785556106d6565b828001600101855582156106d6579182015b828111156106d65782518255916020019190600101906106bb565b506106e2929150610761565b5090565b8280546106f2906109a7565b90600052602060002090601f01602090048101928261071457600085556106d6565b82601f1061072557805485556106d6565b828001600101855582156106d657600052602060002091601f016020900482015b828111156106d6578254825591600101919060010190610746565b5b808211156106e25760008155600101610762565b600082601f830112610786578081fd5b813567ffffffffffffffff808211156107a1576107a16109e2565b604051601f8301601f19908116603f011681019082821181831017156107c9576107c96109e2565b816040528381528660208588010111156107e1578485fd5b8360208701602083013792830160200193909352509392505050565b60006020828403121561080e578081fd5b813567ffffffffffffffff811115610824578182fd5b61083084828501610776565b949350505050565b6000806040838503121561084a578081fd5b823567ffffffffffffffff80821115610861578283fd5b61086d86838701610776565b93506020850135915080821115610882578283fd5b5061088f85828601610776565b9150509250929050565b6000602082840312156108aa578081fd5b5035919050565b600081518084526108c9816020860160208601610977565b601f01601f19169290920160200192915050565b600082516108ef818460208701610977565b9190910192915050565b60006080825261090c60808301876108b1565b94151560208301525060408101929092526001600160a01b0316606090910152919050565b60006040825261094460408301856108b1565b90508260208301529392505050565b6000821982111561097257634e487b7160e01b81526011600452602481fd5b500190565b60005b8381101561099257818101518382015260200161097a565b838111156109a1576000848401525b50505050565b6002810460018216806109bb57607f821691505b602082108114156109dc57634e487b7160e01b600052602260045260246000fd5b50919050565b634e487b7160e01b600052604160045260246000fdfea26469706673582212200ad1d117d15bed0bbd721c32078b58e3005a2bf7a02c0a370d3ac49b70f52daf64736f6c63430008020033",
  "linkReferences": {},
  "deployedLinkReferences": {}
}